:020000040000FA
:100000000C945E000C9486000C9486000C94860080
:100010000C9486000C9486000C9486000C94860048
:100020000C9486000C9486000C9486000C94860038
:100030000C9486000C9486000C9486000C94860028
:100040000C947F030C9486000C94EF030C94C9036A
:100050000C9486000C9486000C9486000C94860008
:100060000C9486000C9486000000000024002700F9
:100070002A0000000000250028002B0004040404CE
:100080000404040402020202020203030303030342
:10009000010204081020408001020408102001021F
:1000A00004081020000000080002010000030407FB
:1000B000000000000000000021049A0711241FBE68
:1000C000CFEFD8E0DEBFCDBF22E0ACE3B1E001C0AE
:1000D0001D92A634B207E1F711E0A0E0B1E0E0E93B
:1000E000F5E102C005900D92AC33B107D9F710E0ED
:1000F000CDE5D0E004C02197FE010E949208CC35E6
:10010000D107C9F70E9485040C94BB0A0C94000027
:10011000AF92BF92CF92DF92EF92FF920F931F9315
:10012000CF93DF936C017B018B01040F151FEB0153
:100130005E01AE18BF08C017D10759F06991D6010A
:10014000ED91FC910190F081E02DC6010995892B7C
:1001500079F7C501DF91CF911F910F91FF90EF903B
:10016000DF90CF90BF90AF900895FC01538D448DE8
:10017000252F30E0842F90E0821B930B541710F052
:10018000CF96089501970895FC01918D828D98175F
:1001900061F0A28DAE0FBF2FB11D5D968C91928D37
:1001A0009F5F9F73928F90E008958FEF9FEF089568
:1001B0002FB7F8948091650190916601A091670135
:1001C000B09168012FBF8093710190937201A09349
:1001D0007301B093740189E691E00E94C40097FF17
:1001E00026C02FB7F8948091650190916601A09187
:1001F0006701B09168012FBF409171015091720168
:100200006091730170917401841B950BA60BB70B61
:1002100040916D0150916E0160916F01709170017C
:1002200084179507A607B707B0F28FEF9FEF0895E1
:10023000FC01918D828D981731F0828DE80FF11DB0
:10024000858D90E008958FEF9FEF0895FC01918DCB
:10025000228D892F90E0805C9F4F821B91098F73C4
:100260009927089589E691E00E94260121E0892BD3
:1002700009F420E0822F089580E090E0892B29F096
:100280000E94320181110C9400000895FC01A48D9C
:10029000A80FB92FB11DA35ABF4F2C91848D90E0A8
:1002A00001968F739927848FA689B7892C93A0898B
:1002B000B1898C91837080648C93938D848D981315
:1002C00006C00288F389E02D80818F7D80830895A8
:1002D000EF92FF920F931F93CF93DF93EC0181E096
:1002E000888F9B8D8C8D98131AC0E889F98980813D
:1002F00085FF15C09FB7F894EE89FF896083E88970
:10030000F98980818370806480839FBF81E090E061
:10031000DF91CF911F910F91FF90EF900895F62EEE
:100320000B8D10E00F5F1F4F0F731127E02E8C8D88
:100330008E110CC00FB607FCFACFE889F9898081CD
:1003400085FFF5CFCE010E944601F1CFEB8DEC0F7A
:10035000FD2FF11DE35AFF4FF0829FB7F8940B8FEA
:10036000EA89FB8980818062CFCFCF93DF93EC0154
:10037000888D8823B9F0AA89BB89E889F9898C918D
:1003800085FD03C0808186FD0DC00FB607FCF7CF49
:100390008C9185FFF2CF808185FFEDCFCE010E9449
:1003A0004601E9CFDF91CF910895CF92DF92EF928E
:1003B000FF920F931F93CF93DF936C017B0104E2B5
:1003C00012E0D0E0C0E0F80124813581211531052B
:1003D00099F080819181FC014081442369F0F6010C
:1003E000448155812417350739F460817181009764
:1003F000A9F06115710579F421960A5F1F4FC53088
:10040000D10509F7DF91CF911F910F91FF90EF90E8
:10041000DF90CF9008950E94830A09C0611571058D
:1004200041F0FB01808190E0919581959109892BA4
:1004300019F7FE01EE0FFF1FE25CFE4F0190F08105
:10044000E02DF182E082D8CF0F931F93CF93DF93FB
:10045000EC0188819981009759F02A813B81261708
:10046000370730F081E0DF91CF911F910F91089510
:100470008B016F5F7F4F0E94BD09009759F09983F0
:1004800088831B830A832C813D81232B59F7FC0130
:100490001082E8CF80E0E7CFEF92FF920F931F9397
:1004A000CF93DF936115710541F480E0DF91CF9127
:1004B0001F910F91FF90EF90089541155105B1F0F4
:1004C0007B01EC010C811D81040F151FB8010E94F6
:1004D0002402882351F3288139818C819D81B701C1
:1004E000820F931F0E948C0A1D830C8381E0DECF54
:1004F000CF93DF93EC0188819981009711F00E94DE
:100500003409198218821D821C821B821A82DF9193
:10051000CF910895CF93DF93EC01FB010190002070
:10052000E9F73197AF01461B570B0E944C0281112E
:1005300003C0CE010E947802CE01DF91CF910895D1
:10054000CF93DF93EC01FB01448155816081718180
:100550000E944C02811103C0CE010E947802CE019C
:10056000DF91CF910895EF92FF920F931F93CF9356
:10057000DF93EC017B018A01BA010E942402811100
:100580000BC0CE010E947802CE01DF91CF911F9166
:100590000F91FF90EF9008951D830C83B701888120
:1005A00099810E948C0AF0CFCF93DF93EC01FB017D
:1005B0008617970749F0608171816115710541F0D7
:1005C000448155810E94B302CE01DF91CF910895FD
:1005D0000E947802F9CF0F931F93CF93DF938B0183
:1005E000C0913C01D0913D0146E04C9F90014D9F50
:1005F000300D1124BC01C9018C5D9D4F0E94D402B5
:10060000FE01EE0FFF1FE25CFE4F11830083219677
:10061000D0933D01C0933C01DF91CF911F910F9189
:100620000895FC01118210821382128215821482B5
:10063000FB0101900020E9F73197AF01461B570BF2
:100640000C94B302AF92BF92CF92DF92EF92FF92DF
:100650000F931F93CF93DF937C016B015A018901A4
:100660002417350720F48B2D5901042F182F69E327
:1006700071E0C7010E941103D6011496CD91DC915F
:10068000AC16BD0620F50C171D0708F4E801D601CD
:10069000ED91FC911197EC0FFD1F108110826D916F
:1006A0007C916A0D7B1D61157105E9F0FB010190DC
:1006B0000020E9F73197AF01461B570BC7010E9495
:1006C000B302F60180819181C80FD91F1883C70139
:1006D000DF91CF911F910F91FF90EF90DF90CF901E
:1006E000BF90AF900895C7010E947802EACFFC0145
:1006F00080819181009711F00C94340908951F9224
:100700000F920FB60F9211242F933F938F939F93C5
:10071000AF93BF938091650190916601A0916701AD
:10072000B09168013091640123E0230F2D3758F513
:100730000196A11DB11D20936401809365019093E2
:100740006601A0936701B093680180916001909168
:100750006101A0916201B09163010196A11DB11DDB
:100760008093600190936101A0936201B093630153
:10077000BF91AF919F918F913F912F910F900FBE9D
:100780000F901F90189526E8230F0296A11DB11D0A
:10079000D2CF1F920F920FB60F9211242F933F9337
:1007A0004F935F936F937F938F939F93AF93BF9379
:1007B000EF93FF9389E691E00E944601FF91EF914C
:1007C000BF91AF919F918F917F916F915F914F9169
:1007D0003F912F910F900FBE0F901F9018951F9271
:1007E0000F920FB60F9211242F938F939F93EF9335
:1007F000FF93E0917901F0917A018081E0917F018E
:10080000F091800182FD1BC09081809182018F5FF9
:100810008F7320918301821741F0E0918201F0E013
:10082000E759FE4F958F80938201FF91EF919F9141
:100830008F912F910F900FBE0F901F901895808170
:10084000F4CF0F931F93CF93DF9310926C0110920C
:100850006B0188EE93E0A0E0B0E080936D0190938F
:100860006E01A0936F01B09370018AE091E09093C4
:100870006A018093690185EC90E090937601809302
:10088000750184EC90E0909378018093770180EC7F
:1008900090E090937A018093790181EC90E09093BD
:1008A0007C0180937B0182EC90E090937E018093A9
:1008B0007D0186EC90E09093800180937F011092FF
:1008C0008201109283011092840110928501C4E28A
:1008D000D2E002E412E069E371E0CE010E9411036C
:1008E00026960C171D07B9F7C6E0D2E069E371E060
:1008F000CE010E941103269682E0C432D807B1F7D8
:10090000DF91CF911F910F910895CF93DF93CDB7D2
:10091000DEB7A4970FB6F894DEBF0FBECDBF7894B4
:1009200084B5826084BD84B5816084BD85B58260F4
:1009300085BD85B5816085BD80916E0081608093A5
:100940006E0010928100809181008260809381000E
:10095000809181008160809381008091800081601E
:10096000809380008091B10084608093B100809179
:10097000B00081608093B00080917A0084608093A1
:100980007A0080917A00826080937A0080917A0068
:10099000816080937A0080917A00806880937A00E9
:1009A0001092C100BDE92B2EB0E03B2EF101249145
:1009B00019E8412E10E0512EF2018491882399F01C
:1009C00090E0880F991FFC01E859FF4FA591B49161
:1009D000FC01EE58FF4F859194918FB7F8949C914C
:1009E000292B2C938FBF68E171E08E010F5F1F4FA1
:1009F000C8010E9411036AE471E0C8010E94EB0281
:100A0000C8010E9477036BE171E0C8010E941103E5
:100A10006CE571E0C8010E94EB02C8010E947703F7
:100A20006EE171E0C8010E9411036EE571E0C8013A
:100A30000E94EB02C8010E94770361E271E0C801E5
:100A40000E941103E0904801F090490156E0D52E34
:100A5000DE9C5001DF9CB00C1124B801C5018A5FF7
:100A60009D4F0E94D402F701EE0FFF1FE45BFE4F83
:100A70008AE591E091838083C8010E94770364E254
:100A800071E0C8010E941103B801C501845F9D4F48
:100A90000E94D402F701EE0FFF1FE25BFE4F86E5D6
:100AA00091E091838083F2E0EF0EF11CF092490116
:100AB000E0924801C8010E947703E0917901F0912A
:100AC0007A0182E08083E0917501F09176011082D5
:100AD000E0917701F09178018FEC80831092810191
:100AE000E0917D01F0917E01D082E0917B01F09157
:100AF0007C01808180618083E0917B01F0917C01A9
:100B0000808188608083E0917B01F0917C0180810D
:100B100080688083E0917B01F0917C0180818F7DF2
:100B2000808384E690E0A0E0B0E080936D01909334
:100B30006E01A0936F01B0937001E2E36E2E712CF1
:100B4000F0E0AF2EF0E0BF2E80915E0190915F014A
:100B5000E1EBF0E03491F1012491F201449144235E
:100B600001F1332359F0333009F461C008F054C067
:100B7000313009F462C0323009F463C0E42FF0E090
:100B8000EE0FFF1FEE58FF4FA591B4913FB7F894B9
:100B9000853F91400CF062C08C91209528232C93C6
:100BA0003FBF80915C0190915D0197FD0196959505
:100BB000879590935B0180935A01809158019091A1
:100BC00059019C012F5F3F4F3093590120935801E9
:100BD000B3010E946A084AE0489F9001499F300D86
:100BE0001124309357012093560169E371E0CE013F
:100BF0004F960E9411030E94D80097FD32C08A30A0
:100C0000910579F189831A8241E050E0B801CE0163
:100C10004F960E944C02EFCF3730B1F03830D1F010
:100C2000343009F0ABCF309180003F7D03C030916C
:100C300080003F7730938000A1CF34B53F7734BD3B
:100C40009DCF34B53F7DFBCF3091B0003F773093DF
:100C5000B00094CF3091B0003F7DF9CF8C91282B1C
:100C60009ECFCBA0DCA082E0C816D10408F4D3C08C
:100C700067E271E0CE0143960E941103BE01615EFE
:100C80007F4FCE0143960E94A00262E371E00E9472
:100C90008A027C014AE0B801C6010E940908F801F5
:100CA00001900020E9F73197AF01401B510BB801CB
:100CB000C7010E944C02811103C0C7010E94780243
:100CC00065E371E0C7010E948A02DC0114964D9130
:100CD0005C9115976D917C9189E691E00E94880066
:100CE00042E050E067E371E089E691E00E9488000D
:100CF000CE0143960E9477036AE371E0C8010E9427
:100D000011034D815E818BA19CA18417950778F01A
:100D10008F8D98A1009759F069817A8161157105CD
:100D200031F00E94930AFF24F394892B09F0F12CEF
:100D3000C8010E947703FF2009F46DC08BA19CA11C
:100D4000059708F468C024E030E043E050E0BE01BD
:100D5000615E7F4FC8010E9422038D819E81FF2426
:100D6000F394892B59F06AE371E089819A810E949A
:100D7000830AFF24F394892B09F4F12CC8010E9403
:100D80007703F11048C023E030E041E050E0BE01BD
:100D9000615E7F4FCE0149960E9422032BA13CA1A8
:100DA00044E050E0BE01615E7F4FCE0143960E9459
:100DB00022038B899C89009709F4B8C00E94C2075E
:100DC0006B016AE371E0C8010E9411038F89988D5D
:100DD000892B61F08B889C8869817A81C4010E948B
:100DE000A10A7C01E818F908892B19F4EE24EA9489
:100DF000FE2CC8010E947703F7FE05C0B601CE01A4
:100E000049960E94D501CE0143960E947703CE01F8
:100E100049960E947703CE014F960E94770386E0A1
:100E2000E82E82E0F82E9CE4C92E91E0D92EF7013D
:100E300084819581892B09F461C00190F081E02DB6
:100E40008081882309F45AC0D6018D909C901A8E17
:100E5000198E1C8E1B8E1E8E1D8EB701CE014996DB
:100E60000E94D402F401808191811C8A1B8A1E8A0F
:100E70001D8A188E1F8A4AE0B8010E94E907F8010E
:100E800001900020E9F73197AF01401B510BB801E9
:100E9000CE0143960E94B3026AE371E0C8010E944A
:100EA0001103BE01675E7F4FC8010E94A0026AE382
:100EB00071E00E948A02BE016D5E7F4F0E94A00217
:100EC000DC0114964D915C9115976D917C9189E6AA
:100ED00091E00E94880042E050E067E371E089E61B
:100EE00091E00E948800C8010E947703CE014396DA
:100EF0000E947703CE0149960E947703B6E0EB0E7D
:100F0000F11CE2E0CE0ED11CF4E2EF16F2E0FF0697
:100F100009F08DCFA114B10409F416CE0E9432015C
:100F2000882309F411CE0E9400000ECE60E070E02C
:100F3000CB0146CF8EE192E00E94770388E192E0F8
:100F40000E94770382E192E00E9477038CE092E0B6
:100F50000E94770386E092E00E9477038CE392E0A0
:100F60000E94770386E392E00E94770380E392E099
:100F70000E9477038AE292E00E94770384E292E083
:100F80000C9477031F93FC0199278827BC01E894F0
:100F900011911032E9F3193010F01E30C8F31B32F2
:100FA00051F01D3249F4689406C00E94F407610FA5
:100FB000711D811D911D119110531A30B0F33EF433
:100FC00090958095709561957F4F8F4F9F4F1F91A2
:100FD0000895BB274A3031F4992322F4BDE290955D
:100FE00081959F4F0C940A08592F482F372F262F91
:100FF000660F771F881F991F660F771F881F991F1D
:10100000620F731F841F951F660F771F881F991F1C
:101010000895BB27FB015527AA27880F991FAA1FF0
:10102000A41710F0A41B83955051B9F7A05DAA3303
:1010300008F0A95DA193009779F7B111B1931192CE
:10104000CB010C942308DC01FC01672F71917723FD
:10105000E1F7329704C07C916D9370836291AE1773
:10106000BF07C8F308952F923F924F925F926F92FD
:101070007F928F929F92AF92BF92CF92DF92EF9228
:10108000FF920F931F93CF93DF93CDB7DEB7CA1BA9
:10109000DB0B0FB6F894DEBF0FBECDBF09942A88D4
:1010A000398848885F846E847D848C849B84AA847C
:1010B000B984C884DF80EE80FD800C811B81AA8109
:1010C000B981CE0FD11D0FB6F894DEBF0FBECDBFD4
:1010D000ED01089597FB072E16F4009407D077FDD5
:1010E00009D00E947E0807FC05D03EF490958195BA
:1010F0009F4F0895709561957F4F0895AA1BBB1B64
:1011000051E107C0AA1FBB1FA617B70710F0A61B07
:10111000B70B881F991F5A95A9F780959095BC0128
:10112000CD010895EE0FFF1F0590F491E02D099475
:101130000F931F93CF93DF938230910510F482E0D9
:1011400090E0E0914402F091450230E020E0B0E010
:10115000A0E0309799F42115310509F44AC0281B05
:10116000390B24303105D8F58A819B8161157105D1
:1011700089F1FB0193838283FE0111C0408151817B
:101180000281138148175907E0F04817590799F46D
:10119000109761F012960C93129713961C93329647
:1011A000CF01DF91CF911F910F91089500934402D9
:1011B00010934502F4CF2115310551F04217530722
:1011C00038F0A901DB019A01BD01DF01F801C1CFAF
:1011D000EF01F9CF9093450280934402CDCFFE01F9
:1011E000E20FF31F819391932250310939832883B1
:1011F000D7CF2091420230914302232B41F420911A
:101200000201309103013093430220934202209166
:101210000001309101012115310541F42DB73EB790
:101220004091040150910501241B350BE0914202CD
:10123000F0914302E217F307A0F42E1B3F0B28178F
:10124000390778F0AC014E5F5F4F2417350748F03F
:101250004E0F5F1F5093430240934202819391933C
:101260009FCFF0E0E0E09CCFCF93DF930097E9F0D1
:10127000FC01329713821282A0914402B091450280
:10128000ED0130E020E01097A1F420813181820F40
:10129000931F20914202309143022817390709F029
:1012A00061C0F0934302E0934202DF91CF91089531
:1012B000EA01CE17DF07E8F54A815B819E014115FF
:1012C0005105B1F7E901FB83EA8349915991C40FB4
:1012D000D51FEC17FD0761F4808191810296840F80
:1012E000951FE90199838883828193819B838A83F7
:1012F000F0E0E0E012968D919C9113970097B9F57C
:101300002D913C911197CD010296820F931F209150
:101310004202309143022817390739F6309751F5C8
:101320001092450210924402B0934302A0934202ED
:10133000BCCFD383C28340815181840F951FC817CE
:10134000D90761F44E5F5F4F88819981480F591F1B
:10135000518340838A819B81938382832115310548
:1013600009F0B0CFF0934502E09344029ECFFD0117
:10137000DC01C0CF13821282D7CFB0E0A0E0E3EC53
:10138000F9E00C9435088C01009751F4CB010E94D0
:1013900098088C01C801CDB7DEB7E0E10C94510884
:1013A000FC01E60FF71F9C0122503109E217F307F9
:1013B00008F49DC0D901CD91DC911197C617D707CC
:1013C00098F0C530D10530F3CE0104978617970702
:1013D00008F3C61BD70B2297C193D1936D937C93CF
:1013E000CF010E943409D6CF5B01AC1ABD0A4C0173
:1013F0008C0E9D1EA0914402B0914502512C412CAF
:10140000F12CE12C109731F580914202909143022A
:101410008815990509F05CC04616570608F058C0B3
:101420008091000190910101009741F48DB79EB722
:101430004091040150910501841B950BE817F907B1
:1014400008F055C0F0934302E0934202F901718322
:101450006083A0CF8D919C91119712966C901297FA
:1014600013967C901397A815B90559F56C0142E0C5
:10147000C40ED11CCA14DB0420F1AC014A195B096B
:10148000DA011296159780F062827382518340834D
:10149000D9016D937C93E114F10471F0D701139697
:1014A000FC93EE93129776CF22968C0F9D1FF90135
:1014B00091838083F301EFCFF0934502E0934402E0
:1014C00069CF4816590608F42C017D01D3019ACF43
:1014D000CB010E9498087C01009749F0AE01B80149
:1014E0000E947A0AC8010E943409870153CF10E094
:1014F00000E050CFFB01DC0102C001900D92415091
:101500005040D8F70895FB01DC018D9101908019BE
:101510000110D9F3990B0895FB01DC0101900D92A4
:101520000020E1F70895FB01DC014150504030F00C
:101530008D910190801919F40020B9F7881B990B3F
:101540000895FB0151915523A9F0BF01DC014D9194
:1015500045174111E1F759F4CD010190002049F000
:101560004D9140154111C9F3FB014111EFCF81E0CD
:1015700090E00197089510E0CDE5D0E004C0FE01B1
:101580000E9492082196CE35D107C9F7F894FFCF73
:101590000000460280000000000068018800B500DD
:1015A000B5012601C4001801433100433200433322
:1015B0000043340043350052656365697665643ADB
:0C15C000200020280029000D0A003A003D
:107E0000112484B714BE81FFF0D085E080938100F7
:107E100082E08093C00088E18093C10086E0809377
:107E2000C20080E18093C4008EE0C9D0259A86E02C
:107E300020E33CEF91E0309385002093840096BBD3
:107E4000B09BFECF1D9AA8958150A9F7CC24DD24C4
:107E500088248394B5E0AB2EA1E19A2EF3E0BF2EE7
:107E6000A2D0813461F49FD0082FAFD0023811F036
:107E7000013811F484E001C083E08DD089C08234E0
:107E800011F484E103C0853419F485E0A6D080C0E4
:107E9000853579F488D0E82EFF2485D0082F10E0AE
:107EA000102F00270E291F29000F111F8ED06801E7
:107EB0006FC0863521F484E090D080E0DECF843638
:107EC00009F040C070D06FD0082F6DD080E0C81688
:107ED00080E7D80618F4F601B7BEE895C0E0D1E017
:107EE00062D089930C17E1F7F0E0CF16F0E7DF06D8
:107EF00018F0F601B7BEE89568D007B600FCFDCFD4
:107F0000A601A0E0B1E02C9130E011968C91119780
:107F100090E0982F8827822B932B1296FA010C0160
:107F200087BEE89511244E5F5F4FF1E0A038BF0790
:107F300051F7F601A7BEE89507B600FCFDCF97BE46
:107F4000E89526C08437B1F42ED02DD0F82E2BD052
:107F50003CD0F601EF2C8F010F5F1F4F84911BD097
:107F6000EA94F801C1F70894C11CD11CFA94CF0C13
:107F7000D11C0EC0853739F428D08EE10CD085E9AC
:107F80000AD08FE07ACF813511F488E018D01DD067
:107F900080E101D065CF982F8091C00085FFFCCF94
:107FA0009093C60008958091C00087FFFCCF809118
:107FB000C00084FD01C0A8958091C6000895E0E648
:107FC000F0E098E1908380830895EDDF803219F02E
:107FD00088E0F5DFFFCF84E1DECF1F93182FE3DFCA
:107FE0001150E9F7F2DF1F91089580E0E8DFEE27F6
:047FF000FF270994CA
:027FFE00040479
:00000001FF
